{
  "_format": "hh-sol-artifact-1",
  "contractName": "ERC721RoyaltiesCollection",
  "sourceName": "contracts/erc721Royality.sol",
  "abi": [
    {
      "inputs": [
        {
          "internalType": "string",
          "name": "name_",
          "type": "string"
        },
        {
          "internalType": "string",
          "name": "symbol_",
          "type": "string"
        },
        {
          "internalType": "string",
          "name": "baseURI_",
          "type": "string"
        },
        {
          "internalType": "address",
          "name": "bridgeAddress",
          "type": "address"
        },
        {
          "components": [
            {
              "internalType": "address",
              "name": "receiver",
              "type": "address"
            },
            {
              "internalType": "uint96",
              "name": "feeNumerator",
              "type": "uint96"
            }
          ],
          "internalType": "struct SetRoyalityInterface.SetRoyalty",
          "name": "setRoyaltyInfo",
          "type": "tuple"
        }
      ],
      "stateMutability": "nonpayable",
      "type": "constructor"
    },
    {
      "anonymous": false,
      "inputs": [
        {
          "indexed": true,
          "internalType": "address",
          "name": "owner",
          "type": "address"
        },
        {
          "indexed": true,
          "internalType": "address",
          "name": "approved",
          "type": "address"
        },
        {
          "indexed": true,
          "internalType": "uint256",
          "name": "tokenId",
          "type": "uint256"
        }
      ],
      "name": "Approval",
      "type": "event"
    },
    {
      "anonymous": false,
      "inputs": [
        {
          "indexed": true,
          "internalType": "address",
          "name": "owner",
          "type": "address"
        },
        {
          "indexed": true,
          "internalType": "address",
          "name": "operator",
          "type": "address"
        },
        {
          "indexed": false,
          "internalType": "bool",
          "name": "approved",
          "type": "bool"
        }
      ],
      "name": "ApprovalForAll",
      "type": "event"
    },
    {
      "anonymous": false,
      "inputs": [
        {
          "indexed": true,
          "internalType": "address",
          "name": "from",
          "type": "address"
        },
        {
          "indexed": true,
          "internalType": "address",
          "name": "to",
          "type": "address"
        },
        {
          "indexed": true,
          "internalType": "uint256",
          "name": "tokenId",
          "type": "uint256"
        }
      ],
      "name": "Transfer",
      "type": "event"
    },
    {
      "inputs": [
        {
          "internalType": "address",
          "name": "to",
          "type": "address"
        },
        {
          "internalType": "uint256",
          "name": "tokenId",
          "type": "uint256"
        }
      ],
      "name": "approve",
      "outputs": [],
      "stateMutability": "nonpayable",
      "type": "function"
    },
    {
      "inputs": [
        {
          "internalType": "address",
          "name": "owner",
          "type": "address"
        }
      ],
      "name": "balanceOf",
      "outputs": [
        {
          "internalType": "uint256",
          "name": "",
          "type": "uint256"
        }
      ],
      "stateMutability": "view",
      "type": "function"
    },
    {
      "inputs": [],
      "name": "baseURI",
      "outputs": [
        {
          "internalType": "string",
          "name": "",
          "type": "string"
        }
      ],
      "stateMutability": "view",
      "type": "function"
    },
    {
      "inputs": [],
      "name": "baseUri",
      "outputs": [
        {
          "internalType": "string",
          "name": "",
          "type": "string"
        }
      ],
      "stateMutability": "view",
      "type": "function"
    },
    {
      "inputs": [
        {
          "internalType": "address",
          "name": "from",
          "type": "address"
        },
        {
          "internalType": "uint256",
          "name": "id",
          "type": "uint256"
        }
      ],
      "name": "burnFor",
      "outputs": [],
      "stateMutability": "nonpayable",
      "type": "function"
    },
    {
      "inputs": [
        {
          "internalType": "uint256",
          "name": "tokenId",
          "type": "uint256"
        }
      ],
      "name": "getApproved",
      "outputs": [
        {
          "internalType": "address",
          "name": "",
          "type": "address"
        }
      ],
      "stateMutability": "view",
      "type": "function"
    },
    {
      "inputs": [
        {
          "internalType": "address",
          "name": "owner",
          "type": "address"
        },
        {
          "internalType": "address",
          "name": "operator",
          "type": "address"
        }
      ],
      "name": "isApprovedForAll",
      "outputs": [
        {
          "internalType": "bool",
          "name": "",
          "type": "bool"
        }
      ],
      "stateMutability": "view",
      "type": "function"
    },
    {
      "inputs": [
        {
          "internalType": "address",
          "name": "to",
          "type": "address"
        },
        {
          "internalType": "uint256",
          "name": "id",
          "type": "uint256"
        },
        {
          "internalType": "bytes",
          "name": "rawInfo",
          "type": "bytes"
        }
      ],
      "name": "mint",
      "outputs": [],
      "stateMutability": "nonpayable",
      "type": "function"
    },
    {
      "inputs": [],
      "name": "name",
      "outputs": [
        {
          "internalType": "string",
          "name": "",
          "type": "string"
        }
      ],
      "stateMutability": "view",
      "type": "function"
    },
    {
      "inputs": [],
      "name": "owner",
      "outputs": [
        {
          "internalType": "address",
          "name": "",
          "type": "address"
        }
      ],
      "stateMutability": "view",
      "type": "function"
    },
    {
      "inputs": [
        {
          "internalType": "uint256",
          "name": "tokenId",
          "type": "uint256"
        }
      ],
      "name": "ownerOf",
      "outputs": [
        {
          "internalType": "address",
          "name": "",
          "type": "address"
        }
      ],
      "stateMutability": "view",
      "type": "function"
    },
    {
      "inputs": [
        {
          "internalType": "uint256",
          "name": "_tokenId",
          "type": "uint256"
        },
        {
          "internalType": "uint256",
          "name": "_salePrice",
          "type": "uint256"
        }
      ],
      "name": "royaltyInfo",
      "outputs": [
        {
          "internalType": "address",
          "name": "",
          "type": "address"
        },
        {
          "internalType": "uint256",
          "name": "",
          "type": "uint256"
        }
      ],
      "stateMutability": "view",
      "type": "function"
    },
    {
      "inputs": [
        {
          "internalType": "address",
          "name": "from",
          "type": "address"
        },
        {
          "internalType": "address",
          "name": "to",
          "type": "address"
        },
        {
          "internalType": "uint256",
          "name": "tokenId",
          "type": "uint256"
        }
      ],
      "name": "safeTransferFrom",
      "outputs": [],
      "stateMutability": "nonpayable",
      "type": "function"
    },
    {
      "inputs": [
        {
          "internalType": "address",
          "name": "from",
          "type": "address"
        },
        {
          "internalType": "address",
          "name": "to",
          "type": "address"
        },
        {
          "internalType": "uint256",
          "name": "tokenId",
          "type": "uint256"
        },
        {
          "internalType": "bytes",
          "name": "data",
          "type": "bytes"
        }
      ],
      "name": "safeTransferFrom",
      "outputs": [],
      "stateMutability": "nonpayable",
      "type": "function"
    },
    {
      "inputs": [
        {
          "internalType": "address",
          "name": "operator",
          "type": "address"
        },
        {
          "internalType": "bool",
          "name": "approved",
          "type": "bool"
        }
      ],
      "name": "setApprovalForAll",
      "outputs": [],
      "stateMutability": "nonpayable",
      "type": "function"
    },
    {
      "inputs": [
        {
          "internalType": "bytes4",
          "name": "interfaceId",
          "type": "bytes4"
        }
      ],
      "name": "supportsInterface",
      "outputs": [
        {
          "internalType": "bool",
          "name": "",
          "type": "bool"
        }
      ],
      "stateMutability": "view",
      "type": "function"
    },
    {
      "inputs": [],
      "name": "symbol",
      "outputs": [
        {
          "internalType": "string",
          "name": "",
          "type": "string"
        }
      ],
      "stateMutability": "view",
      "type": "function"
    },
    {
      "inputs": [
        {
          "internalType": "uint256",
          "name": "index",
          "type": "uint256"
        }
      ],
      "name": "tokenByIndex",
      "outputs": [
        {
          "internalType": "uint256",
          "name": "",
          "type": "uint256"
        }
      ],
      "stateMutability": "view",
      "type": "function"
    },
    {
      "inputs": [
        {
          "internalType": "address",
          "name": "owner",
          "type": "address"
        },
        {
          "internalType": "uint256",
          "name": "index",
          "type": "uint256"
        }
      ],
      "name": "tokenOfOwnerByIndex",
      "outputs": [
        {
          "internalType": "uint256",
          "name": "",
          "type": "uint256"
        }
      ],
      "stateMutability": "view",
      "type": "function"
    },
    {
      "inputs": [
        {
          "internalType": "uint256",
          "name": "tokenId",
          "type": "uint256"
        }
      ],
      "name": "tokenURI",
      "outputs": [
        {
          "internalType": "string",
          "name": "",
          "type": "string"
        }
      ],
      "stateMutability": "view",
      "type": "function"
    },
    {
      "inputs": [],
      "name": "totalSupply",
      "outputs": [
        {
          "internalType": "uint256",
          "name": "",
          "type": "uint256"
        }
      ],
      "stateMutability": "view",
      "type": "function"
    },
    {
      "inputs": [
        {
          "internalType": "address",
          "name": "from",
          "type": "address"
        },
        {
          "internalType": "address",
          "name": "to",
          "type": "address"
        },
        {
          "internalType": "uint256",
          "name": "tokenId",
          "type": "uint256"
        }
      ],
      "name": "transferFrom",
      "outputs": [],
      "stateMutability": "nonpayable",
      "type": "function"
    }
  ],
  "bytecode": "0x60806040523480156200001157600080fd5b5060405162002506380380620025068339810160408190526200003491620002d1565b848460006200004483826200045a565b5060016200005382826200045a565b50600c915062000066905084826200045a565b50600d80546001600160a01b0319166001600160a01b038481169190911790915581511615620000a35780516020820151620000a39190620000ae565b505050505062000526565b6127106001600160601b0382161115620001225760405162461bcd60e51b815260206004820152602a60248201527f455243323938313a20726f79616c7479206665652077696c6c206578636565646044820152692073616c65507269636560b01b60648201526084015b60405180910390fd5b6001600160a01b0382166200017a5760405162461bcd60e51b815260206004820152601960248201527f455243323938313a20696e76616c696420726563656976657200000000000000604482015260640162000119565b604080518082019091526001600160a01b039092168083526001600160601b039091166020909201829052600160a01b90910217600a55565b634e487b7160e01b600052604160045260246000fd5b604080519081016001600160401b0381118282101715620001ee57620001ee620001b3565b60405290565b604051601f8201601f191681016001600160401b03811182821017156200021f576200021f620001b3565b604052919050565b600082601f8301126200023957600080fd5b81516001600160401b03811115620002555762000255620001b3565b60206200026b601f8301601f19168201620001f4565b82815285828487010111156200028057600080fd5b60005b83811015620002a057858101830151828201840152820162000283565b506000928101909101919091529392505050565b80516001600160a01b0381168114620002cc57600080fd5b919050565b600080600080600085870360c0811215620002eb57600080fd5b86516001600160401b03808211156200030357600080fd5b620003118a838b0162000227565b975060208901519150808211156200032857600080fd5b620003368a838b0162000227565b965060408901519150808211156200034d57600080fd5b506200035c89828a0162000227565b9450506200036d60608801620002b4565b92506040607f19820112156200038257600080fd5b506200038d620001c9565b6200039b60808801620002b4565b815260a08701516001600160601b0381168114620003b857600080fd5b6020820152949793965091945092919050565b600181811c90821680620003e057607f821691505b6020821081036200040157634e487b7160e01b600052602260045260246000fd5b50919050565b601f8211156200045557600081815260208120601f850160051c81016020861015620004305750805b601f850160051c820191505b8181101562000451578281556001016200043c565b5050505b505050565b81516001600160401b03811115620004765762000476620001b3565b6200048e81620004878454620003cb565b8462000407565b602080601f831160018114620004c65760008415620004ad5750858301515b600019600386901b1c1916600185901b17855562000451565b600085815260208120601f198616915b82811015620004f757888601518255948401946001909101908401620004d6565b5085821015620005165787850151600019600388901b60f8161c191681555b5050505050600190811b01905550565b611fd080620005366000396000f3fe608060405234801561001057600080fd5b50600436106101425760003560e01c80636352211e116100b857806395d89b411161007c57806395d89b41146102bb5780639abc8320146102c3578063a22cb465146102cb578063b88d4fde146102de578063c87b56dd146102f1578063e985e9c51461030457600080fd5b80636352211e146102675780636c0360eb1461027a57806370a08231146102825780638da5cb5b1461029557806394d008ef146102a857600080fd5b80631dd319cb1161010a5780631dd319cb146101d657806323b872dd146101e95780632a55205a146101fc5780632f745c591461022e57806342842e0e146102415780634f6ccce71461025457600080fd5b806301ffc9a71461014757806306fdde031461016f578063081812fc14610184578063095ea7b3146101af57806318160ddd146101c4575b600080fd5b61015a6101553660046118e9565b610340565b60405190151581526020015b60405180910390f35b610177610351565b6040516101669190611956565b610197610192366004611969565b6103e3565b6040516001600160a01b039091168152602001610166565b6101c26101bd36600461199e565b61040a565b005b6008545b604051908152602001610166565b6101c26101e436600461199e565b610524565b6101c26101f73660046119c8565b6105e9565b61020f61020a366004611a04565b61061a565b604080516001600160a01b039093168352602083019190915201610166565b6101c861023c36600461199e565b6106c6565b6101c261024f3660046119c8565b61075c565b6101c8610262366004611969565b610777565b610197610275366004611969565b61080a565b61017761086a565b6101c8610290366004611a26565b610892565b600d54610197906001600160a01b031681565b6101c26102b6366004611a41565b610918565b6101776109b3565b6101776109c2565b6101c26102d9366004611ac8565b610a50565b6101c26102ec366004611b4b565b610a5b565b6101776102ff366004611969565b610a8d565b61015a610312366004611c0b565b6001600160a01b03918216600090815260056020908152604080832093909416825291909152205460ff1690565b600061034b82610af4565b92915050565b60606000805461036090611c3e565b80601f016020809104026020016040519081016040528092919081815260200182805461038c90611c3e565b80156103d95780601f106103ae576101008083540402835291602001916103d9565b820191906000526020600020905b8154815290600101906020018083116103bc57829003601f168201915b5050505050905090565b60006103ee82610b19565b506000908152600460205260409020546001600160a01b031690565b60006104158261080a565b9050806001600160a01b0316836001600160a01b0316036104875760405162461bcd60e51b815260206004820152602160248201527f4552433732313a20617070726f76616c20746f2063757272656e74206f776e656044820152603960f91b60648201526084015b60405180910390fd5b336001600160a01b03821614806104a357506104a38133610312565b6105155760405162461bcd60e51b815260206004820152603d60248201527f4552433732313a20617070726f76652063616c6c6572206973206e6f7420746f60448201527f6b656e206f776e6572206f7220617070726f76656420666f7220616c6c000000606482015260840161047e565b61051f8383610b7b565b505050565b600d546001600160a01b031633146105735760405162461bcd60e51b815260206004820152601260248201527113595d1a1bd9081b9bdd08185b1b1bddd95960721b604482015260640161047e565b816001600160a01b03166105868261080a565b6001600160a01b0316146105dc5760405162461bcd60e51b815260206004820152601760248201527f596f7520646f6e2774206f776e2074686973206e667421000000000000000000604482015260640161047e565b6105e581610be9565b5050565b6105f33382610c03565b61060f5760405162461bcd60e51b815260040161047e90611c78565b61051f838383610c82565b6000828152600b602090815260408083208151808301909252546001600160a01b038116808352600160a01b9091046001600160601b031692820192909252829161068f575060408051808201909152600a546001600160a01b0381168252600160a01b90046001600160601b031660208201525b6020810151600090612710906106ae906001600160601b031687611cdb565b6106b89190611cf2565b915196919550909350505050565b60006106d183610892565b82106107335760405162461bcd60e51b815260206004820152602b60248201527f455243373231456e756d657261626c653a206f776e657220696e646578206f7560448201526a74206f6620626f756e647360a81b606482015260840161047e565b506001600160a01b03919091166000908152600660209081526040808320938352929052205490565b61051f83838360405180602001604052806000815250610a5b565b600061078260085490565b82106107e55760405162461bcd60e51b815260206004820152602c60248201527f455243373231456e756d657261626c653a20676c6f62616c20696e646578206f60448201526b7574206f6620626f756e647360a01b606482015260840161047e565b600882815481106107f8576107f8611d14565b90600052602060002001549050919050565b6000818152600260205260408120546001600160a01b03168061034b5760405162461bcd60e51b8152602060048201526018602482015277115490cdcc8c4e881a5b9d985b1a59081d1bdad95b88125160421b604482015260640161047e565b6060600c60405160200161087e9190611d2a565b604051602081830303815290604052905090565b60006001600160a01b0382166108fc5760405162461bcd60e51b815260206004820152602960248201527f4552433732313a2061646472657373207a65726f206973206e6f7420612076616044820152683634b21037bbb732b960b91b606482015260840161047e565b506001600160a01b031660009081526003602052604090205490565b600d546001600160a01b031633146109675760405162461bcd60e51b815260206004820152601260248201527113595d1a1bd9081b9bdd08185b1b1bddd95960721b604482015260640161047e565b80156109a357600061097b82840184611dd5565b80519091506001600160a01b0316156109a1576109a18482600001518360200151610df3565b505b6109ad8484610f01565b50505050565b60606001805461036090611c3e565b600c80546109cf90611c3e565b80601f01602080910402602001604051908101604052809291908181526020018280546109fb90611c3e565b8015610a485780601f10610a1d57610100808354040283529160200191610a48565b820191906000526020600020905b815481529060010190602001808311610a2b57829003601f168201915b505050505081565b6105e5338383610f1b565b610a653383610c03565b610a815760405162461bcd60e51b815260040161047e90611c78565b6109ad84848484610fe9565b6060610a9882610b19565b6000610aa261101c565b90506000815111610ac25760405180602001604052806000815250610aed565b80610acc8461102b565b604051602001610add929190611e3e565b6040516020818303038152906040525b9392505050565b60006001600160e01b0319821663152a902d60e11b148061034b575061034b826110be565b6000818152600260205260409020546001600160a01b0316610b785760405162461bcd60e51b8152602060048201526018602482015277115490cdcc8c4e881a5b9d985b1a59081d1bdad95b88125160421b604482015260640161047e565b50565b600081815260046020526040902080546001600160a01b0319166001600160a01b0384169081179091558190610bb08261080a565b6001600160a01b03167f8c5be1e5ebec7d5bd14f71427d1e84f3dd0314c0f7b2291e5b200ac8c7c3b92560405160405180910390a45050565b610bf2816110e3565b6000908152600b6020526040812055565b600080610c0f8361080a565b9050806001600160a01b0316846001600160a01b03161480610c5657506001600160a01b0380821660009081526005602090815260408083209388168352929052205460ff165b80610c7a5750836001600160a01b0316610c6f846103e3565b6001600160a01b0316145b949350505050565b826001600160a01b0316610c958261080a565b6001600160a01b031614610cbb5760405162461bcd60e51b815260040161047e90611e6d565b6001600160a01b038216610d1d5760405162461bcd60e51b8152602060048201526024808201527f4552433732313a207472616e7366657220746f20746865207a65726f206164646044820152637265737360e01b606482015260840161047e565b610d2a8383836001611186565b826001600160a01b0316610d3d8261080a565b6001600160a01b031614610d635760405162461bcd60e51b815260040161047e90611e6d565b600081815260046020908152604080832080546001600160a01b03199081169091556001600160a01b0387811680865260038552838620805460001901905590871680865283862080546001019055868652600290945282852080549092168417909155905184937fddf252ad1be2c89b69c2b068fc378daa952ba7f163c4a11628f55a4df523b3ef91a4505050565b6127106001600160601b0382161115610e615760405162461bcd60e51b815260206004820152602a60248201527f455243323938313a20726f79616c7479206665652077696c6c206578636565646044820152692073616c65507269636560b01b606482015260840161047e565b6001600160a01b038216610eb75760405162461bcd60e51b815260206004820152601b60248201527f455243323938313a20496e76616c696420706172616d65746572730000000000604482015260640161047e565b6040805180820182526001600160a01b0393841681526001600160601b0392831660208083019182526000968752600b90529190942093519051909116600160a01b029116179055565b6105e58282604051806020016040528060008152506112c6565b816001600160a01b0316836001600160a01b031603610f7c5760405162461bcd60e51b815260206004820152601960248201527f4552433732313a20617070726f766520746f2063616c6c657200000000000000604482015260640161047e565b6001600160a01b03838116600081815260056020908152604080832094871680845294825291829020805460ff191686151590811790915591519182527f17307eab39ab6107e8899845ad3d59bd9653f200f220920489ca2b5937696c31910160405180910390a3505050565b610ff4848484610c82565b611000848484846112f9565b6109ad5760405162461bcd60e51b815260040161047e90611eb2565b6060600c805461036090611c3e565b60606000611038836113fa565b600101905060008167ffffffffffffffff81111561105857611058611b04565b6040519080825280601f01601f191660200182016040528015611082576020820181803683370190505b5090508181016020015b600019016f181899199a1a9b1b9c1cb0b131b232b360811b600a86061a8153600a850494508461108c57509392505050565b60006001600160e01b0319821663780e9d6360e01b148061034b575061034b826114d2565b60006110ee8261080a565b90506110fe816000846001611186565b6111078261080a565b600083815260046020908152604080832080546001600160a01b03199081169091556001600160a01b0385168085526003845282852080546000190190558785526002909352818420805490911690555192935084927fddf252ad1be2c89b69c2b068fc378daa952ba7f163c4a11628f55a4df523b3ef908390a45050565b61119284848484611522565b60018111156112015760405162461bcd60e51b815260206004820152603560248201527f455243373231456e756d657261626c653a20636f6e7365637574697665207472604482015274185b9cd9995c9cc81b9bdd081cdd5c1c1bdc9d1959605a1b606482015260840161047e565b816001600160a01b03851661125d5761125881600880546000838152600960205260408120829055600182018355919091527ff3f7a9fe364faab93b216da50a3214154f22a0a2b415b23a84c8169e8b636ee30155565b611280565b836001600160a01b0316856001600160a01b0316146112805761128085826115aa565b6001600160a01b03841661129c5761129781611647565b6112bf565b846001600160a01b0316846001600160a01b0316146112bf576112bf84826116f6565b5050505050565b6112d0838361173a565b6112dd60008484846112f9565b61051f5760405162461bcd60e51b815260040161047e90611eb2565b60006001600160a01b0384163b156113ef57604051630a85bd0160e11b81526001600160a01b0385169063150b7a029061133d903390899088908890600401611f04565b6020604051808303816000875af1925050508015611378575060408051601f3d908101601f1916820190925261137591810190611f41565b60015b6113d5573d8080156113a6576040519150601f19603f3d011682016040523d82523d6000602084013e6113ab565b606091505b5080516000036113cd5760405162461bcd60e51b815260040161047e90611eb2565b805181602001fd5b6001600160e01b031916630a85bd0160e11b149050610c7a565b506001949350505050565b60008072184f03e93ff9f4daa797ed6e38ed64bf6a1f0160401b83106114395772184f03e93ff9f4daa797ed6e38ed64bf6a1f0160401b830492506040015b6d04ee2d6d415b85acef81000000008310611465576d04ee2d6d415b85acef8100000000830492506020015b662386f26fc10000831061148357662386f26fc10000830492506010015b6305f5e100831061149b576305f5e100830492506008015b61271083106114af57612710830492506004015b606483106114c1576064830492506002015b600a831061034b5760010192915050565b60006001600160e01b031982166380ac58cd60e01b148061150357506001600160e01b03198216635b5e139f60e01b145b8061034b57506301ffc9a760e01b6001600160e01b031983161461034b565b60018111156109ad576001600160a01b03841615611568576001600160a01b03841660009081526003602052604081208054839290611562908490611f5e565b90915550505b6001600160a01b038316156109ad576001600160a01b0383166000908152600360205260408120805483929061159f908490611f71565b909155505050505050565b600060016115b784610892565b6115c19190611f5e565b600083815260076020526040902054909150808214611614576001600160a01b03841660009081526006602090815260408083208584528252808320548484528184208190558352600790915290208190555b5060009182526007602090815260408084208490556001600160a01b039094168352600681528383209183525290812055565b60085460009061165990600190611f5e565b6000838152600960205260408120546008805493945090928490811061168157611681611d14565b9060005260206000200154905080600883815481106116a2576116a2611d14565b60009182526020808320909101929092558281526009909152604080822084905585825281205560088054806116da576116da611f84565b6001900381819060005260206000200160009055905550505050565b600061170183610892565b6001600160a01b039093166000908152600660209081526040808320868452825280832085905593825260079052919091209190915550565b6001600160a01b0382166117905760405162461bcd60e51b815260206004820181905260248201527f4552433732313a206d696e7420746f20746865207a65726f2061646472657373604482015260640161047e565b6000818152600260205260409020546001600160a01b0316156117f55760405162461bcd60e51b815260206004820152601c60248201527f4552433732313a20746f6b656e20616c7265616479206d696e74656400000000604482015260640161047e565b611803600083836001611186565b6000818152600260205260409020546001600160a01b0316156118685760405162461bcd60e51b815260206004820152601c60248201527f4552433732313a20746f6b656e20616c7265616479206d696e74656400000000604482015260640161047e565b6001600160a01b038216600081815260036020908152604080832080546001019055848352600290915280822080546001600160a01b0319168417905551839291907fddf252ad1be2c89b69c2b068fc378daa952ba7f163c4a11628f55a4df523b3ef908290a45050565b6001600160e01b031981168114610b7857600080fd5b6000602082840312156118fb57600080fd5b8135610aed816118d3565b60005b83811015611921578181015183820152602001611909565b50506000910152565b60008151808452611942816020860160208601611906565b601f01601f19169290920160200192915050565b602081526000610aed602083018461192a565b60006020828403121561197b57600080fd5b5035919050565b80356001600160a01b038116811461199957600080fd5b919050565b600080604083850312156119b157600080fd5b6119ba83611982565b946020939093013593505050565b6000806000606084860312156119dd57600080fd5b6119e684611982565b92506119f460208501611982565b9150604084013590509250925092565b60008060408385031215611a1757600080fd5b50508035926020909101359150565b600060208284031215611a3857600080fd5b610aed82611982565b60008060008060608587031215611a5757600080fd5b611a6085611982565b935060208501359250604085013567ffffffffffffffff80821115611a8457600080fd5b818701915087601f830112611a9857600080fd5b813581811115611aa757600080fd5b886020828501011115611ab957600080fd5b95989497505060200194505050565b60008060408385031215611adb57600080fd5b611ae483611982565b915060208301358015158114611af957600080fd5b809150509250929050565b634e487b7160e01b600052604160045260246000fd5b604051601f8201601f1916810167ffffffffffffffff81118282101715611b4357611b43611b04565b604052919050565b60008060008060808587031215611b6157600080fd5b611b6a85611982565b93506020611b79818701611982565b935060408601359250606086013567ffffffffffffffff80821115611b9d57600080fd5b818801915088601f830112611bb157600080fd5b813581811115611bc357611bc3611b04565b611bd5601f8201601f19168501611b1a565b91508082528984828501011115611beb57600080fd5b808484018584013760008482840101525080935050505092959194509250565b60008060408385031215611c1e57600080fd5b611c2783611982565b9150611c3560208401611982565b90509250929050565b600181811c90821680611c5257607f821691505b602082108103611c7257634e487b7160e01b600052602260045260246000fd5b50919050565b6020808252602d908201527f4552433732313a2063616c6c6572206973206e6f7420746f6b656e206f776e6560408201526c1c881bdc88185c1c1c9bdd9959609a1b606082015260800190565b634e487b7160e01b600052601160045260246000fd5b808202811582820484141761034b5761034b611cc5565b600082611d0f57634e487b7160e01b600052601260045260246000fd5b500490565b634e487b7160e01b600052603260045260246000fd5b600080835481600182811c915080831680611d4657607f831692505b60208084108203611d6557634e487b7160e01b86526022600452602486fd5b818015611d795760018114611d8e57611dbb565b60ff1986168952841515850289019650611dbb565b60008a81526020902060005b86811015611db35781548b820152908501908301611d9a565b505084890196505b505050505050610c7a81637b69647d60e01b815260040190565b600060408284031215611de757600080fd5b6040516040810181811067ffffffffffffffff82111715611e0a57611e0a611b04565b604052611e1683611982565b815260208301356001600160601b0381168114611e3257600080fd5b60208201529392505050565b60008351611e50818460208801611906565b835190830190611e64818360208801611906565b01949350505050565b60208082526025908201527f4552433732313a207472616e736665722066726f6d20696e636f72726563742060408201526437bbb732b960d91b606082015260800190565b60208082526032908201527f4552433732313a207472616e7366657220746f206e6f6e20455243373231526560408201527131b2b4bb32b91034b6b83632b6b2b73a32b960711b606082015260800190565b6001600160a01b0385811682528416602082015260408101839052608060608201819052600090611f379083018461192a565b9695505050505050565b600060208284031215611f5357600080fd5b8151610aed816118d3565b8181038181111561034b5761034b611cc5565b8082018082111561034b5761034b611cc5565b634e487b7160e01b600052603160045260246000fdfea26469706673582212200f26f1a0a9d442c5dad7f6294b3a82773054ec8a535f9834dbc60d135fae115b64736f6c63430008110033",
  "linkReferences": {},
  "deployedLinkReferences": {}
}